S0110000554152545F746573742E73726563B8
S11300000C9434000C9451000C9451000C94510045
S11300100C9451000C9451000C9451000C94510018
S11300200C9451000C9451000C9451000C94510008
S11300300C9451000C9451000C9451000C945100F8
S11300400C9451000C9451000C9451000C94E80051
S11300500C9451000C9451000C9451000C945100D8
S11300600C9451000C94510011241FBECFEFD8E022
S1130070DEBFCDBF11E0A0E0B1E0ECE4F2E002C0ED
S113008005900D92AA30B107D9F721E0AAE0B1E0BA
S113009001C01D92A433B207E1F70E9495000C94AD
S11300A024010C940000FC018489843150F4848977
S11300B0DF01A80FB11D6C9384898F5F848B80E06E
S11300C0089581E00895EF92FF920F931F93CF93C9
S11300D07C018B01C42F442374F0F801EC0FF11D53
S11300E0C7FDFA956081C7010E945300811105C0C4
S11300F0C1509AF703C080E001C081E0CF911F9105
S11301000F91FF90EF900895FC018489882359F0A2
S113011084898150848B8489E80FF11D8081FB01DF
S1130120808380E0089581E00895CF93DF93CDB775
S1130130DEB728970FB6F894DEBF0FBECDBF88E0B8
S1130140E2E0F1E0DE01119601900D928A95E1F76B
S1130150259A0E94CD0040910001BE016F5F7F4F40
S11301608AE091E00E9463008AE091E00E94DA0054
S11301702D9A2FEF89E698E1215080409040E1F7D5
S113018000C000002D982FEF89E698E121508040AF
S11301909040E1F700C00000EBCF1092C50087E665
S11301A08093C40086E08093C20088E18093C100FC
S11301B078940895FC0195E1AFE1B1E001900D92CE
S11301C09A95E1F7E1ECF0E0808180628083089504
S11301D01F920F920FB60F9211242F933F934F93B8
S11301E05F936F937F938F939F93AF93BF93EF939B
S11301F0FF93CF93DF931F92CDB7DEB7BE016F5F3E
S11302007F4F8FE191E00E948400811104C08981B5
S11302108093C60005C0E1ECF0E080818F7D80838F
S11302200F90DF91CF91FF91EF91BF91AF919F918B
S11302308F917F916F915F914F913F912F910F908B
S10F02400FBE0F901F901895F894FFCF8C
S10D024C08004844505050500A00C6
S9030000FC
