:100000000C9443000C9455000C9455000C9455002E
:100010000C9455000C9455000C9455000C94E00081
:100020000C9455000C9455000C9455000C945500FC
:100030000C9455000C9455000C9455000C945500EC
:100040000C9455000C9455000C9455000C94000130
:100050000C9455000C9455000C9455000C945500CC
:100060000C9455000C94550005A84CCDB2D44EB953
:100070003836A9020C50B9918688083CA6AAAA2A4B
:10008000BE000000803F11241FBECFEFD8E0DEBFCE
:10009000CDBF22E0A0E0B1E001C01D92A631B207C1
:1000A000E1F70E9468000C946A030C940000FC01C4
:1000B0008489882359F084898150848B8489E80F4E
:1000C000F11D8081FB01808380E0089581E0089527
:1000D00000E011E0C0E0D0E0BE010D2E000C880B66
:1000E000990B0E94E1016B017C012AED3FE049EC94
:1000F0005CE30E946D020E94DA024B015C012CED70
:100100003EE74CEB5EE3C701B6010E946D020E9420
:10011000DA026B017C012AE939E949E55FE3C501AF
:10012000B4010E946D024B015C012AE939E949E101
:100130005EE3C701B6010E946D029B01AC01C501DF
:10014000B4010E943D0120E030E04EEF52E40E94F5
:100150006D0220E030E040E053E40E943D010E9447
:10016000A901F80161938F012196C115F1E0DF0724
:1001700009F0B2CF0E94C1000E94D2000E94DB00B1
:10018000FFCF219AA1E8B0E081E08C93E0E8F0E0B5
:100190008081806880838081816080838C91886089
:1001A0008C9308951092B00082E08093B10080E2B9
:1001B0008093B300089582E080937000789408954E
:1001C0001F920F920FB60F9211248F93EF93FF930C
:1001D000E091000281E08E0F80930002F0E0E05099
:1001E000FF4F808180938800000086E08093B200FA
:1001F000FF91EF918F910F900FBE0F901F90189568
:100200001F920F920FB60F9211242F933F934F938B
:100210005F936F937F938F939F93AF93BF93EF936E
:10022000FF93CF93DF931F92CDB7DEB7BE016F5F11
:100230007F4F81E092E00E945700811104C08981C4
:100240008093C60005C0E1ECF0E080818F7D808363
:100250000F90DF91CF91FF91EF91BF91AF919F915F
:100260008F917F916F915F914F913F912F910F905F
:100270000FBE0F901F9018955058BB27AA270E94B9
:1002800054010C9433020E94250238F00E942C0283
:1002900020F039F49F3F19F426F40C9422020EF456
:1002A000E095E7FB0C941C02E92F0E94440258F3EE
:1002B000BA17620773078407950720F079F4A6F54B
:1002C0000C9466020EF4E0950B2EBA2FA02D0B01B4
:1002D000B90190010C01CA01A0011124FF27591B8B
:1002E00099F0593F50F4503E68F11A16F040A22F91
:1002F000232F342F4427585FF3CF46953795279502
:10030000A795F0405395C9F77EF41F16BA0B620B00
:10031000730B840BBAF09150A1F0FF0FBB1F661F47
:10032000771F881FC2F70EC0BA0F621F731F841F8A
:1003300048F4879577956795B795F7959E3F08F0B0
:10034000B0CF9395880F08F09927EE0F9795879572
:1003500008950E94B0016894B1110C946702089549
:100360000E944C0288F09F5798F0B92F9927B751F7
:10037000B0F0E1F0660F771F881F991F1AF0BA9549
:10038000C9F714C0B13091F00E946602B1E008953F
:100390000C946602672F782F8827B85F39F0B93F31
:1003A000CCF3869577956795B395D9F73EF49095FC
:1003B0008095709561957F4F8F4F9F4F0895E8947A
:1003C00009C097FB3EF490958095709561957F4F9D
:1003D0008F4F9F4F9923A9F0F92F96E9BB2793954B
:1003E000F695879577956795B795F111F8CFFAF45B
:1003F000BB0F11F460FF1BC06F5F7F4F8F4F9F4F8C
:1004000016C0882311F096E911C0772321F09EE8E9
:10041000872F762F05C0662371F096E8862F70E04F
:1004200060E02AF09A95660F771F881FDAF7880F29
:100430009695879597F9089597F99F6780E870E0FA
:1004400060E008959FEF80EC089500240A9416164A
:10045000170618060906089500240A9412161306B2
:10046000140605060895092E0394000C11F4882340
:1004700052F0BB0F40F4BF2B11F460FF04C06F5F5C
:100480007F4F8F4F9F4F089557FD9058440F551F32
:1004900059F05F3F71F04795880F97FB991F61F006
:1004A0009F3F79F087950895121613061406551F7D
:1004B000F2CF4695F1DF08C0161617061806991FE9
:1004C000F1CF86957105610508940895E894BB27DE
:1004D00066277727CB0197F908950E9480020C9434
:1004E00033020E94250238F00E942C0220F095234E
:1004F00011F00C941C020C94220211240C9467023B
:100500000E94440270F3959FC1F3950F50E0551F70
:10051000629FF001729FBB27F00DB11D639FAA2758
:10052000F00DB11DAA1F649F6627B00DA11D661FA7
:10053000829F2227B00DA11D621F739FB00DA11DC8
:10054000621F839FA00D611D221F749F3327A00D82
:10055000611D231F849F600D211D822F762F6A2F1E
:1005600011249F5750409AF0F1F088234AF0EE0F83
:10057000FF1FBB1F661F771F881F91505040A9F7B0
:100580009E3F510580F00C941C020C9467025F3F63
:10059000E4F3983ED4F3869577956795B795F795EC
:1005A000E7959F5FC1F7FE2B880F911D9695879564
:1005B00097F908959F930E94E4020F9007FCEE5F65
:1005C0000C940D030C9422020E944C02D8F3E89480
:1005D000E0E0BB279F57F0F02AED3FE049EC06C072
:1005E000EE0FBB0F661F771F881F28F0B23A620715
:1005F0007307840728F0B25A620B730B840BE395E0
:100600009A9572F7803830F49A95BB0F661F771F62
:10061000881FD2F790480C942303EF93E0FF07C0A4
:10062000A2EA2AED3FE049EC5FEB0E9454010E94F0
:1006300033020F90039401FC9058E8E6F0E00C942C
:100640002F039F3F31F0915020F487957795679560
:10065000B795880F911D9695879597F908959F9363
:100660008F937F936F93FF93EF939B01AC010E9455
:100670006D02EF91FF910E9443032F913F914F91A3
:100680005F910C946D02DF93CF931F930F93FF92B2
:10069000EF92DF927B018C01689406C0DA2EEF01A5
:1006A0000E948002FE01E894A59125913591459123
:1006B0005591A6F3EF010E945401FE019701A80194
:1006C000DA9469F7DF90EF90FF900F911F91CF912F
:0806D000DF910895F894FFCFBB
:00000001FF
