:100000000C9434000C9451000C9451000C94510049
:100010000C9451000C9451000C9451000C9451001C
:100020000C9451000C9451000C9451000C9451000C
:100030000C9451000C9451000C9451000C945100FC
:100040000C9451000C9451000C9451000C942E020D
:100050000C9451000C9475000C9451000C945100B8
:100060000C9451000C94510011241FBECFEFD8E026
:10007000DEBFCDBF11E0A0E0B1E0E6E8F5E002C0F0
:1000800005900D92AC30B107D9F721E0ACE0B1E0BA
:1000900001C01D92A832B207E1F70E94F2000C9451
:1000A000C1020C940000ECE7F0E020812066208380
:1000B000EAE7F0E020812D6A2083EBE7F0E0208181
:1000C0002360208390930D0180930C010895ECE749
:1000D000F0E090818F70907F892B80830895EAE70C
:1000E000F0E080818064808308951F920F920FB6A4
:1000F0000F9211248F939F93EF93FF9382E085BB20
:1001000080910E0190910F01019690930F018093C1
:100110000E0180910E0190910F018436910581F4BA
:10012000E0910C01F0910D018091790090E09183B4
:10013000808381E08093100110920F0110920E01D4
:10014000FF91EF919F918F910F900FBE0F901F9095
:100150001895FC018489843150F48489DF01A80F4B
:10016000B11D6C9384898F5F848B80E0089581E05A
:100170000895EF92FF920F931F93CF938C017B0111
:10018000C42FFC01148A44237CF0F701EC0FF11D0D
:10019000C7FDFA9531976081C8010E94A9008111BD
:1001A00005C0C15092F703C080E001C081E0CF914B
:1001B0001F910F91FF90EF900895FC01848988238F
:1001C00059F084898150848B8489E80FF11D8081E6
:1001D000FB01808380E0089581E008958AB1846402
:1001E0008AB90895CF93DF93CDB7DEB76C970FB67A
:1001F000F894DEBF0FBECDBF80E091EE0E9471018A
:100200000E94EE00CE014B960E94530080E00E94B7
:1002100067000E9466010E946D010E946F00789441
:10022000809110018823E1F36BE070E080E091E0C1
:100230000E94110241E0BE016A5E7F4F8B8D9C8D52
:100240000E94310145E0BE016A5E7F4FCE010196FA
:100250000E94B900CE0101960E94D00110921001B7
:10026000DFCFFF920F931F93CF93DF938C01EB01AE
:10027000F42E4AE00E948C020A3011053CF4888179
:100280008B8380E3888389838A8316C004361105B3
:1002900044F488818A8389818B8380E3888389837E
:1002A0000BC0083E134044F48A818B8389818A8382
:1002B0008881898380E38883FF2011F08AE08C8322
:1002C000DF91CF911F910F91FF90089516BC8BE99C
:1002D00087BD84B5826484BD089585B5856085BD7C
:1002E0000895CF92DF92EF92FF9290931201809344
:1002F0001101A0E0B0E0880F991FAA1FBB1F880F53
:10030000991FAA1FBB1F9C01AD01220F331F441F61
:10031000551F220F331F441F551F0F2EC12CF4E20F
:10032000DF2EF4EFEF2EF12CF02DC701B6010E9465
:100330006A02DA01C9010197A109B109892F9A2F2F
:10034000AB2FBB278093C500209111013091120182
:10035000C901A0E0B0E0880F991FAA1FBB1F880F3A
:10036000991FAA1FBB1F9C01AD01220F331F441F01
:10037000551F220F331F441F551FC701B6010E948E
:100380006A0221502093C40086E08093C20088E175
:100390008093C1007894FF90EF90DF90CF90089504
:1003A000FC01A1ECB0E09C9195FDFDCF95E1A3E1AE
:1003B000B1E001900D929A95E1F7E1ECF0E08081D7
:1003C0008062808378940895CF92DF92EF92FF92BB
:1003D0000F931F93CF93DF931F92CDB7DEB77C01AE
:1003E00000EC10E00F2EF6ECCF2ED12CF02D07C034
:1003F000F801908195FFFCCF9981F6019083BE01B1
:100400006F5F7F4FC7010E94DD00882389F30F9043
:10041000DF91CF911F910F91FF90EF90DF90CF90E0
:100420000895CF93DF93CDB7DEB765970FB6F894F5
:10043000DEBF0FBECDBF462FBC01CE0101960E948C
:10044000B900CE0101960E94E40165960FB6F894BA
:10045000DEBF0FBECDBFDF91CF9108951F920F92E7
:100460000FB60F9211242F933F934F935F936F9387
:100470007F938F939F93AF93BF93EF93FF93CF930C
:10048000DF931F92CDB7DEB7BE016F5F7F4F83E171
:1004900091E00E94DD00811104C089818093C60033
:1004A00005C0E1ECF0E080818F7D80830F90DF91CB
:1004B000CF91FF91EF91BF91AF919F918F917F91DC
:1004C0006F915F914F913F912F910F900FBE0F90C1
:1004D0001F901895A1E21A2EAA1BBB1BFD010DC08F
:1004E000AA1FBB1FEE1FFF1FA217B307E407F507E4
:1004F00020F0A21BB30BE40BF50B661F771F881FC0
:10050000991F1A9469F760957095809590959B0155
:10051000AC01BD01CF010895BB274A3031F49923C6
:1005200022F4BDE2909581959F4F0C949802BB27D1
:10053000FB015527AA27880F991FAA1FA41710F09F
:10054000A41B83955051B9F7A05DAA3308F0A95DAB
:10055000A193009779F7B111B1931192CB010C944B
:10056000B102DC01FC01672F71917723E1F732972B
:1005700004C07C916D9370836291AE17BF07C8F37E
:060580000895F894FFCF7E
:0C0586004144432076616C7565730A00E7
:00000001FF
