:100000000C9434000C9451000C9451000C94510049
:100010000C9451000C9451000C9451000C9451001C
:100020000C9451000C9451000C9451000C9451000C
:100030000C9451000C9451000C9451000C945100FC
:100040000C9451000C9451000C9451000C949201AA
:100050000C9451000C9475000C9451000C945100B8
:100060000C9451000C94510011241FBECFEFD8E026
:10007000DEBFCDBF11E0A0E0B1E0EAE0F4E002C0F5
:1000800005900D92AC30B107D9F721E0ACE0B1E0BA
:1000900001C01D92A933B207E1F70E94DB000C9466
:1000A00003020C940000ECE7F0E02081206620833E
:1000B000EAE7F0E020812D6A2083EBE7F0E0208181
:1000C0002360208390930D0180930C010895ECE749
:1000D000F0E090818F70907F892B80830895EAE70C
:1000E000F0E080818064808308951F920F920FB6A4
:1000F0000F9211248F939F93EF93FF9382E085BB20
:10010000E0910C01F0910D018091790090E09183D4
:100110008083FF91EF919F918F910F900FBE0F9071
:100120001F901895FC018489843150F48489DF0183
:10013000A80FB11D6C9384898F5F848B80E0089534
:1001400081E00895EF92FF920F931F93CF938C015C
:100150007B01C42FFC01148A44237CF0F701EC0FCF
:10016000F11DC7FDFA9531976081C8010E94920088
:10017000811105C0C15092F703C080E001C081E049
:10018000CF911F910F91FF90EF900895FC0184890A
:10019000882359F084898150848B8489E80FF11D6C
:1001A0008081FB01808380E0089581E008958AB119
:1001B00084648AB90895CF93DF93CDB7DEB7A8974B
:1001C0000FB6F894DEBF0FBECDBF0E9471010E9432
:1001D000D700CE0187960E94530080E00E946700FE
:1001E0000E9466010E946D010E946F007894109237
:1001F00023018CE0E0E0F1E0DE01569601900D92E3
:100200008A95E1F74CE0BE016A5E7F4F8EE091E097
:100210000E94A2008EE091E00E947E012FE986E814
:1002200091E0215080409040E1F700C0000041E0A3
:10023000BE016E5D7F4F8FA198A50E94310145E000
:10024000BE016E5D7F4FCE0101960E94A200CE01DD
:1002500001960E947E01809123018F5F809323018C
:10026000DDCFFF920F931F93CF93DF938C01EB01B0
:10027000F42E4AE00E94CE010A3011053CF4888138
:100280008B8380E3888389838A8316C004361105B3
:1002900044F488818A8389818B8380E3888389837E
:1002A0000BC0083E134044F48A818B8389818A8382
:1002B0008881898380E38883FF2011F08AE08C8322
:1002C000DF91CF911F910F91FF90089516BC8FEF92
:1002D00087BD84B5826484BD089585B5856085BD7C
:1002E00008951092C50087E68093C40086E080934D
:1002F000C20088E18093C10078940895FC01A1ECCC
:10030000B0E09C9195FDFDCF95E1A4E2B1E00190B4
:100310000D929A95E1F7E1ECF0E0808180628083B4
:10032000789408951F920F920FB60F9211242F9375
:100330003F934F935F936F937F938F939F93AF936D
:10034000BF93EF93FF93CF93DF931F92CDB7DEB7A9
:10035000BE016F5F7F4F84E291E00E94C600811171
:1003600004C089818093C60005C0E1ECF0E0808183
:100370008F7D80830F90DF91CF91FF91EF91BF919F
:10038000AF919F918F917F916F915F914F913F912D
:100390002F910F900FBE0F901F901895BB274A30DA
:1003A00031F4992322F4BDE2909581959F4F0C94EE
:1003B000DA01BB27FB015527AA27880F991FAA1F1F
:1003C000A41710F0A41B83955051B9F7A05DAA3370
:1003D00008F0A95DA193009779F7B111B19311923B
:1003E000CB010C94F301DC01FC01672F71917723A1
:1003F000E1F7329704C07C916D9370836291AE17E0
:0A040000BF07C8F30895F894FFCF7A
:0C040A004144432076616C7565730A0064
:00000001FF
