S016000050574D5F706F7765725F746573742E737265636F
S11300000C9434000C94A2010C946E010C943A01EB
S11300100C9451000C9451000C9451000C94E50282
S11300200C9451000C9451000C9451000C94510008
S11300300C9451000C9451000C949D020C945100AA
S11300400C9451000C9451000C9451000C9498039E
S11300500C9451000C9477000C9451000C945100B2
S11300600C9451000C94510011241FBECFEFD8E022
S1130070DEBFCDBF11E0A0E0B1E0EAE5F8E002C0E8
S113008005900D92AE32B107D9F721E0AEE2B1E0AE
S113009001C01D92AE34B207E1F70E9425020C9410
S11300A02B040C940000ECE7F0E020812F702083F7
S11300B02081206620832DE820937A0090932F01DD
S11300C080932E010895ECE7F0E090818F70907F8B
S11300D0892B80830895EAE7F0E08081806480833F
S11300E00895EAE7F0E080818777808308951F927E
S11300F00F920FB60F9211242F933F934F935F9358
S11301006F937F938F939F93AF93BF93EF93FF93DB
S113011080917A0085FF23C082E085BB8091350100
S11301209091360101969093360180933501809128
S11301303501909136018436910511F5E0912E0137
S1130140F0912F018091790090E09183808381E088
S113015080933401109236011092350111C0E09160
S11301602E01F0912F018091790090E0918380839A
S113017060E170E080E091E00E947B030E947100E6
S1130180FF91EF91BF91AF919F918F917F916F916B
S11301905F914F913F912F910F900FBE0F901F9041
S11301A01895FC018489843150F48489DF01A80FF7
S11301B0B11D6C9384898F5F848B80E0089581E006
S11301C00895EF92FF920F931F93CF938C017B01BD
S11301D0FC01148ACFEFC40F72F0F701EC0FF11D8C
S11301E0C7FDFA956081C8010E94D100811105C044
S11301F0C1509AF703C080E001C081E0CF911F9104
S11302000F91FF90EF900895FC018489882359F0A1
S113021084898150848B8489E80FF11D8081FB01DE
S1130220808380E0089581E0089552985A9AE9E61F
S1130230F0E0808182608083E09AE89A53985B9A28
S1130240808188608083E19AE99A2098289AE8E678
S1130250F0E0808181608083EBE6F0E08081816062
S11302608083D89A78946AE070E081E191E00E94FA
S11302707B0308951F920F920FB60F9211242F93B0
S11302803F934F935F936F937F938F939F93AF931A
S1130290BF93EF93FF938091320190913301892BA7
S11302A061F481E090E090933301809332016AEF2E
S11302B070E080E094E00E946102FF91EF91BF91B1
S11302C0AF919F918F917F916F915F914F913F91EA
S11302D02F910F900FBE0F901F9018951F920F92A1
S11302E00FB60F9211242F933F934F935F936F9305
S11302F07F938F939F93AF93BF93EF93FF938091DB
S1130300320190913301892B61F481E090E0909364
S11303103301809332016BE970E080E094E00E9445
S11303206102FF91EF91BF91AF919F918F917F9166
S11303306F915F914F913F912F910F900FBE0F904E
S11303401F9018951F920F920FB60F9211242F939E
S11303503F934F935F936F937F938F939F93AF9349
S1130360BF93EF93FF93CF93DF93CDB7DEB725977A
S1130370DEBFCDBF8091320190913301892BB9F555
S113038081E090E090933301809332016BE970E057
S113039080E094E00E946102CE0101960E94530025
S11303A080E00E9463000E946B00EAE7F0E0808135
S11303B086FDFDCF89819A8190933101809330012C
S11303C08091B00080FF04C08091B00081FD08C01E
S11303D00E94D20269E070E08CE191E00E947B030C
S11303E080913001909131010E94E20216C067E0D1
S11303F070E086E291E00E947B0341E0BE016F5F02
S11304007F4F80913201909133010E942C0265E06C
S113041070E0CE0101960E947B030F900F900F9025
S11304200F900F90DF91CF91FF91EF91BF91AF911A
S11304309F918F917F916F915F914F913F912F91F8
S11304400F900FBE0F901F90189580E091EE0E94C0
S1130450EF020E941501FFCFFF920F931F93CF93DA
S1130460DF938C01EB01F42E4AE00E94F6030A307C
S113047011053CF488818B8380E3888389838A8394
S113048016C00436110544F488818A8389818B83DC
S113049080E3888389830BC0083E134044F48A8137
S11304A08B8389818A838881898380E38883FF2081
S11304B011F08AE08C83DF91CF911F910F91FF900F
S11304C008959C0195B5907F95BD20343105A1F028
S11304D020F428303105A1F017C0211581E0380738
S11304E039F02115344081F485B5856085BD0FC090
S11304F085B5846085BD0BC085B5836085BD07C0A7
S113050085B5826085BD03C085B5816085BD16BC97
S113051067BD84B5826084BDEEE6F0E0108282E0BF
S113052080837894089585B5807F85BDEEE6F0E0FC
S113053080818D7F8083108208951F920F920FB661
S11305400F9211242F933F934F935F936F937F9355
S11305508F939F93AF93BF93EF93FF938091320157
S11305609091330101968531910528F490933301DC
S11305708093320106C010923301109232010E941E
S11305809302FF91EF91BF91AF919F918F917F91D2
S11305906F915F914F913F912F910F900FBE0F90EC
S11305A01F901895239A80E28093B30081E0809392
S11305B0B100E0EBF0E0808180688083808183601B
S11305C0808308958093B30008951F920F920FB60D
S11305D00F9211240F900FBE0F901F901895CF9279
S11305E0DF92EF92FF929093380180933701A0E05D
S11305F0B0E0880F991FAA1FBB1F880F991FAA1F5D
S1130600BB1F9C01AD01220F331F441F551F220F36
S1130610331F441F551F0F2EC12CF4E2DF2EF4EFBD
S1130620EF2EF12CF02DC701B6010E94D403DA019C
S1130630C9010197A109B109892F9A2FAB2FBB27B3
S11306408093C5002091370130913801C901A0E0A1
S1130650B0E0880F991FAA1FBB1F880F991FAA1FFC
S1130660BB1F9C01AD01220F331F441F551F220FD6
S1130670331F441F551FC701B6010E94D4032150E4
S11306802093C40086E08093C20088E18093C10077
S11306907894FF90EF90DF90CF900895CF92DF92FF
S11306A0EF92FF920F931F93CF93DF931F92CDB7D7
S11306B0DEB77C0100EC10E00F2EF6ECCF2ED12C2F
S11306C0F02D07C0F801908195FFFCCF9981F601C8
S11306D09083BE016F5F7F4FC7010E94040188238E
S11306E089F30F90DF91CF911F910F91FF90EF90BD
S11306F0DF90CF900895CF93DF93CDB7DEB76597A2
S11307000FB6F894DEBF0FBECDBF462FBC01CE019D
S113071001960E94E100CE0101960E944E03659667
S11307200FB6F894DEBF0FBECDBFDF91CF91089511
S11307301F920F920FB60F9211242F933F934F9352
S11307405F936F937F938F939F93AF93BF93EF9335
S1130750FF93CF93DF931F92CDB7DEB7BE016F5FD8
S11307607F4F89E391E00E940401811104C08981D3
S11307708093C60005C0E1ECF0E080818F7D80832A
S11307800F90DF91CF91FF91EF91BF91AF919F9126
S11307908F917F916F915F914F913F912F910F9026
S11307A00FBE0F901F901895A1E21A2EAA1BBB1B17
S11307B0FD010DC0AA1FBB1FEE1FFF1FA217B30729
S11307C0E407F50720F0A21BB30BE40BF50B661F3F
S11307D0771F881F991F1A9469F760957095809503
S11307E090959B01AC01BD01CF010895BB274A3010
S11307F031F4992322F4BDE2909581959F4F0C9496
S11308000204BB27FB015527AA27880F991FAA1F9B
S1130810A41710F0A41B83955051B9F7A05DAA3317
S113082008F0A95DA193009779F7B111B1931192E2
S1130830CB010C941B04DC01FC01672F719177231D
S1130840E1F7329704C07C916D9370836291AE1787
S10D0850BF07C8F30895F894FFCF22
S113085A636F6E76657273696F6E20646F6E650A74
S113086A00656E646420636F6E660A0053544152D5
S111087A542054320A00426F756E63650A0002
S9030000FC
