S0150000706172616C6C656C5F636F6D6D2E73726563B7
S11300000C9434000C94B7010C946E010C943A01D6
S11300100C9451000C9451000C9451000C94ED027A
S11300200C9451000C9451000C9451000C94510008
S11300300C9455020C9451000C94A1020C945100A0
S11300400C9451000C9451000C9451000C94A00396
S11300500C9451000C9477000C9451000C945100B2
S11300600C9451000C94510011241FBECFEFD8E022
S1130070DEBFCDBF11E0A0E0B1E0E0E0F8E002C0F7
S113008005900D92AC33B107D9F721E0ACE3B1E0B0
S113009001C01D92AC35B207E1F70E9417020C941F
S11300A0FE030C940000ECE7F0E020812F70208325
S11300B02081206620832DE820937A0090933D01CF
S11300C080933C010895ECE7F0E090818F70907F7D
S11300D0892B80830895EAE7F0E08081806480833F
S11300E00895EAE7F0E080818777808308951F927E
S11300F00F920FB60F9211242F933F934F935F9358
S11301006F937F938F939F93AF93BF93EF93FF93DB
S113011080917A0085FF23C082E085BB80914301F2
S113012090914401019690934401809343018091FE
S11301304301909144018436910511F5E0913C010D
S1130140F0913D018091790090E09183808381E07A
S113015080933E01109244011092430111C0E0913A
S11301603C01F0913D018091790090E0918380837E
S113017060E170E080E091E00E9483030E947100DE
S1130180FF91EF91BF91AF919F918F917F916F916B
S11301905F914F913F912F910F900FBE0F901F9041
S11301A01895FC018489843150F48489DF01A80FF7
S11301B0B11D6C9384898F5F848B80E0089581E006
S11301C00895EF92FF920F931F93CF938C017B01BD
S11301D0FC01148ACFEFC40F72F0F701EC0FF11D8C
S11301E0C7FDFA956081C8010E94D100811105C044
S11301F0C1509AF703C080E001C081E0CF911F9104
S11302000F91FF90EF900895FC018489882359F0A1
S113021084898150848B8489E80FF11D8081FB01DE
S1130220808380E0089581E0089552985A9AE9E61F
S1130230F0E0808182608083E09AE89A53985B9A28
S1130240808188608083E19AE99A2098289AE8E678
S1130250F0E0808181608083EBE6F0E08081816062
S11302608083D89A78946AE070E081E191E00E94FA
S1130270830308951F920F920FB60F9211242F93A8
S11302803F934F935F936F937F938F939F93AF931A
S1130290BF93EF93FF938091410190914201892B89
S11302A061F481E090E090934201809341016AEF10
S11302B070E080E094E00E946502FF91EF91BF91AD
S11302C0AF919F918F917F916F915F914F913F91EA
S11302D02F910F900FBE0F901F9018951F920F92A1
S11302E00FB60F9211242F933F934F935F936F9305
S11302F07F938F939F93AF93BF93EF93FF9369E0A3
S113030070E08CE191E00E9483038091410190911F
S11303104201892BD9F464E070E086E291E00E9406
S1130320830380914101909142010196909342018F
S1130330809341016AEF70E080E094E00E946502DE
S11303400E9471000E941E020E943302FF91EF91ED
S1130350BF91AF919F918F917F916F915F914F91D9
S11303603F912F910F900FBE0F901F9018951F92E1
S11303700F920FB60F9211242F933F934F935F93D5
S11303806F937F938F939F93AF93BF93EF93FF9359
S1130390CF93DF9300D0CDB7DEB780914101909128
S11303A04201892B79F581E090E09093420180939A
S11303B041016BE970E080E094E00E946502CE01A7
S11303C001960E94530080E00E9463000E946B002B
S11303D0EAE7F0E0808186FDFDCF89819A819093E0
S11303E0400180933F018091B00080FF03C0809161
S11303F0B00081FF0E94DA0280913F019091400198
S11304000E94EA020F900F90DF91CF91FF91EF913C
S1130410BF91AF919F918F917F916F915F914F9118
S11304203F912F910F900FBE0F901F90189580E071
S113043091EE0E94F7020E941501FFCF87B1817CE3
S113044087B9259888B1817C88B92D988AB1806F45
S11304508AB984B1826184B98BB18F708BB985B14B
S11304608D7E85B90895229AE0E8F0E010828081BB
S11304708061808380818E7F8083E1E8F0E0108258
S11304808081886080838081846080838FE190E0B4
S113049090938B0080938A009093890080938800C6
S11304A084E080936F00789408951F920F920FB6A2
S11304B00F9211248F931A9902C082E083B98F910D
S11304C00F900FBE0F901F9018959C0195B5907FCB
S11304D095BD20343105A1F020F428303105A1F078
S11304E017C0211581E0380739F02115344081F413
S11304F085B5856085BD0FC085B5846085BD0BC09D
S113050085B5836085BD07C085B5826085BD03C0A0
S113051085B5816085BD16BC67BD84B5826084BD28
S1130520EEE6F0E0108282E080837894089585B549
S1130530807F85BDEEE6F0E080818D7F8083108230
S113054008951F920F920FB60F9211242F933F9389
S11305504F935F936F937F938F939F93AF93BF93C7
S1130560EF93FF9380914101909142010196909302
S1130570420180934101459760F060E170E08BE2B5
S113058091E00E94830310924201109241010E9463
S11305909702FF91EF91BF91AF919F918F917F91BE
S11305A06F915F914F913F912F910F900FBE0F90DC
S11305B01F901895239A80E28093B30081E0809382
S11305C0B100E0EBF0E0808180688083808183600B
S11305D0808308958093B30008951F920F920FB6FD
S11305E00F9211240F900FBE0F901F901895CF9269
S11305F0DF92EF92FF929093460180934501A0E031
S1130600B0E0880F991FAA1FBB1F880F991FAA1F4C
S1130610BB1F9C01AD01220F331F441F551F220F26
S1130620331F441F551F0F2EC12CF4E2DF2EF4EFAD
S1130630EF2EF12CF02DC701B6010E94DC03DA0184
S1130640C9010197A109B109892F9A2FAB2FBB27A3
S11306508093C5002091450130914601C901A0E075
S1130660B0E0880F991FAA1FBB1F880F991FAA1FEC
S1130670BB1F9C01AD01220F331F441F551F220FC6
S1130680331F441F551FC701B6010E94DC032150CC
S11306902093C40086E08093C20088E18093C10067
S11306A07894FF90EF90DF90CF900895CF92DF92EF
S11306B0EF92FF920F931F93CF93DF931F92CDB7C7
S11306C0DEB77C0100EC10E00F2EF6ECCF2ED12C1F
S11306D0F02D07C0F801908195FFFCCF9981F601B8
S11306E09083BE016F5F7F4FC7010E94040188237E
S11306F089F30F90DF91CF911F910F91FF90EF90AD
S1130700DF90CF900895CF93DF93CDB7DEB7659791
S11307100FB6F894DEBF0FBECDBF462FBC01CE018D
S113072001960E94E100CE0101960E94560365964F
S11307300FB6F894DEBF0FBECDBFDF91CF91089501
S11307401F920F920FB60F9211242F933F934F9342
S11307505F936F937F938F939F93AF93BF93EF9325
S1130760FF93CF93DF931F92CDB7DEB7BE016F5FC8
S11307707F4F87E491E00E940401811104C08981C4
S11307808093C60005C0E1ECF0E080818F7D80831A
S11307900F90DF91CF91FF91EF91BF91AF919F9116
S11307A08F917F916F915F914F913F912F910F9016
S11307B00FBE0F901F901895A1E21A2EAA1BBB1B07
S11307C0FD010DC0AA1FBB1FEE1FFF1FA217B30719
S11307D0E407F50720F0A21BB30BE40BF50B661F2F
S11307E0771F881F991F1A9469F7609570958095F3
S11307F090959B01AC01BD01CF010895F894FFCF02
S1130800636F6E76657273696F6E20646F6E650ACE
S113081000656E646420636F6E660A00494E54314D
S1130820204953520A006161610A00726573746160
S10F0830727420636F756E7465720A00A8
S9030000FC
